:100000000C945D000C9485000C9485000C94850084
:100010000C9485000C9485000C9485000C9485004C
:100020000C9485000C9485000C9485000C941E069D
:100030000C9485000C9485000C9485000C9485002C
:100040000C947C050C9485000C94EC050C94C6056E
:100050000C9485000C9485000C9485000C9485000C
:100060000C9485000C94850000000008000201003B
:100070000003040700000000000000000000000072
:10008000250028002B0000000000240027002A0083
:10009000040404040404040402020202020203032E
:1000A0000303030301020408102040800102040836
:1000B0001020010204081020DA0611241FBECFEF21
:1000C000D8E0DEBFCDBF11E0A0E0B1E0E0EFF8E1A5
:1000D00002C005900D92AC3CB107D9F722E0ACEC20
:1000E000B1E001C01D92A13DB207E1F710E0CDE5FE
:1000F000D0E004C02197FE010E94700CCC35D107DE
:10010000C9F70E9464070C94760C0C94000090E0F0
:10011000FC01EC55FF4F249180579F4FFC018491C7
:10012000882399F090E0880F991FFC01EA57FF4F50
:10013000A591B491FC01E458FF4F859194918FB73C
:10014000F894EC91E22BEC938FBF0895CF92DF925D
:10015000EF92FF92DC01A03282E0B807D4F5A53B14
:10016000B10514F0A4EBB0E04091B70228E830E00C
:10017000241B310947FD3395220F331F220F331FF4
:100180006901330FEE08FF084091B80228E532E01C
:10019000241B310947FD3395220F331F220F331FD4
:1001A000032E000C440B550B2C193D094E095F0919
:1001B000B7FF02C0B0E0A0E00E94EF0924EB30E0FE
:1001C00040E050E00E94C509C20ED31EE41EF51E99
:1001D000D601E091B602EC3080F52091B70288E8B4
:1001E00090E0821B910927FD9395880F991F880F36
:1001F000991FA817B90784F02091B80288E592E00A
:10020000821B910927FD9395880F991F880F991FCD
:10021000A817B9070CF4CD010297880F991F4FB7A3
:10022000F8942E2F30E0F901EE0FFF1FE20FF31FBD
:10023000EF56FD4F928381834FBFFF90EF90DF9089
:10024000CF90089590E0FC01E859FF4F2491FC0104
:10025000EC55FF4F3491FC01E057FF4FE491EE2342
:10026000C9F0222339F0233001F1A8F4213019F12B
:10027000223029F1F0E0EE0FFF1FE458FF4FA59167
:10028000B4918FB7F894EC91611126C030953E235C
:100290003C938FBF08952730A9F02830C9F024304F
:1002A00049F7809180008F7D03C0809180008F7717
:1002B00080938000DFCF84B58F7784BDDBCF84B59A
:1002C0008F7DFBCF8091B0008F778093B000D2CF2D
:1002D0008091B0008F7DF9CF3E2BDACF8064809380
:1002E0007C0080917A00806480937A0080917A000B
:1002F00086FDFCCF809178009091790008953FB7FA
:10030000F8948091F0019091F101A091F201B091E7
:10031000F30126B5A89B05C02F3F19F00196A11D3A
:10032000B11D3FBFBA2FA92F982F8827BC01CD013F
:10033000620F711D811D911D42E0660F771F881F9E
:10034000991F4A95D1F708958F929F92AF92BF92CD
:10035000CF92DF92EF92FF924B015C010E947F01EE
:100360006B017C010E947F016C197D098E099F0938
:10037000683E734081059105A8F321E0821A910837
:10038000A108B10888EEC80E83E0D81EE11CF11C5C
:1003900081149104A104B10429F7FF90EF90DF903C
:1003A000CF90BF90AF909F908F900895AF92BF92E3
:1003B000CF92DF92EF92FF920F931F93CF93DF9331
:1003C0006C017B018B01040F151FEB015E01AE1860
:1003D000BF08C017D10759F06991D601ED91FC9182
:1003E0000190F081E02DC6010995892B79F7C501AF
:1003F000DF91CF911F910F91FF90EF90DF90CF9001
:10040000BF90AF900895FC01538D448D252F30E0AF
:10041000842F90E0821B930B541710F0CF96089511
:1004200001970895FC01918D828D981761F0A28D3E
:10043000AE0FBF2FB11D5D968C91928D9F5F9F7304
:10044000928F90E008958FEF9FEF0895FC01918DBA
:10045000828D981731F0828DE80FF11D858D90E027
:1004600008958FEF9FEF0895FC01918D228D892FC4
:1004700090E0805C9F4F821B91098F7399270895AC
:1004800084EF91E00E94340221E0892B09F420E0FE
:10049000822F089580E090E0892B29F00E9440028D
:1004A00081110C9400000895FC01A48DA80FB92FB0
:1004B000B11DA35ABF4F2C91848D90E001968F738C
:1004C0009927848FA689B7892C93A089B1898C91AB
:1004D000837080648C93938D848D981306C00288FA
:1004E000F389E02D80818F7D80830895EF92FF92C4
:1004F0000F931F93CF93DF93EC0181E0888F9B8D47
:100500008C8D98131AC0E889F989808185FF15C000
:100510009FB7F894EE89FF896083E889F989808123
:100520008370806480839FBF81E090E0DF91CF91F2
:100530001F910F91FF90EF900895F62E0B8D10E014
:100540000F5F1F4F0F731127E02E8C8D8E110CC083
:100550000FB607FCFACFE889F989808185FFF5CFCE
:10056000CE010E945402F1CFEB8DEC0FFD2FF11D57
:10057000E35AFF4FF0829FB7F8940B8FEA89FB890B
:1005800080818062CFCFCF93DF93EC01888D882369
:10059000B9F0AA89BB89E889F9898C9185FD03C0E6
:1005A000808186FD0DC00FB607FCF7CF8C9185FFCB
:1005B000F2CF808185FFEDCFCE010E945402E9CFBA
:1005C000DF91CF910895089590E080E00895FC01B7
:1005D00001900020E9F73197AF01481B590BBC018E
:1005E00089EB92E00C94D6018F929F92AF92BF92CA
:1005F0000F931F93CF93DF93CDB7DEB7A1970FB6BD
:10060000F894DEBF0FBECDBF19A2423008F44AE015
:100610008E010F5D1F4F842E912CB12CA12CA501B2
:1006200094010E94F709E62FB901CA01EA30F4F4F7
:10063000E05DD801EE938D01232B242B252B79F738
:1006400090E080E0109719F0CD010E94E702A1969A
:100650000FB6F894DEBF0FBECDBFDF91CF911F91D3
:100660000F91BF90AF909F908F900895E95CE1CF7C
:100670000C94E702CF93DF930E94E702EC018EE136
:1006800091E00E94E7028C0F9D1FDF91CF910895AA
:10069000CF93DF93EC0160E08E810E94220161E044
:1006A0008E810E94220160E08E810E9422018BE8EF
:1006B00091E00197F1F7DF91CF910895CF92DF920A
:1006C000EF92FF920F931F93CF93DF936C017C0106
:1006D00087E0E80EF11CD0E0C0E0062F10E0B80182
:1006E0000C2E02C0759567950A94E2F76170F701C8
:1006F00081917F010E9422012196C430D10579F7B2
:10070000C601DF91CF911F910F91FF90EF90DF9085
:10071000CF900C944803CF92DF92EF92FF920F9309
:100720001F93CF93DF93EC01F62E642F8C810E94F0
:1007300022018D818F3F19F060E00E9422010F2D70
:1007400010E08F8584FF25C06E0187E0C80ED11CA4
:10075000F12CE12CB8010E2C02C0759567950A9416
:10076000E2F76170F60181916F010E942201FFEFB3
:10077000EF1AFF0A88E0E816F10461F7CE01DF9175
:10078000CF911F910F91FF90EF90DF90CF900C943D
:100790004803B80184E0759567958A95E1F7CE0125
:1007A0000E945E036F2DCE01DF91CF911F910F91BB
:1007B000FF90EF90DF90CF900C945E0340E0682FA5
:1007C00089EB92E00C948B0381E00E94DE038BE3C3
:1007D0009FE10197F1F70895CF93DF93823029F4D9
:1007E0009091C80298609093C8028093CC021092B6
:1007F000CD0280E48093CE0280E18093CF0280E539
:100800008093D0028091BD020E9487008091BE0239
:100810008F3F11F00E9487008091BF020E948700E5
:10082000C9EBD2E09E01295B32408091C80284FD71
:100830000AC084E090E02196281739073CF48E81A5
:100840000E948700EFCF88E090E0F5CF8BE39DE03A
:100850000197F1F760E08091BD020E94220160E003
:100860008091BF020E9422018091BE028F3F19F049
:1008700060E00E9422018091C80284FD34C063E0E0
:1008800089EB92E00E945E03CBE4D6E4CE010197AF
:10089000F1F763E089EB92E00E945E032197F1F7A4
:1008A00063E089EB92E00E945E0383E592E00197AA
:1008B000F1F762E089EB92E00E945E038091C8024A
:1008C00080620E94DE0384E08093C9028CE00E9473
:1008D000DE030E94E40382E08093CA0286E0DF9197
:1008E000CF910C94DE0380620E94DE038BE496E4D9
:1008F0000197F1F78091C80280620E94DE0383E5D0
:1009000092E00197F1F78091C80280620E94DE03B5
:10091000D5CF9091CC02691710F06FEF690FE62FD9
:10092000F0E0E754FD4F9489890F80680C94DE0352
:1009300041E00E948B0381E090E008954F925F9226
:100940006F927F928F929F92AF92BF92CF92DF92DF
:10095000EF92FF920F931F93CF936B017C01742E44
:10096000AC019B010E945F0C882399F081E291E029
:10097000CF911F910F91FF90EF90DF90CF90BF909C
:10098000AF909F908F907F906F905F904F900C945E
:10099000E70246015701E894B7F82FEF3FEF4FE722
:1009A0005FE7C501B4010E945F0C81110DC02FEFFC
:1009B0003FEF4FE75FE7C501B4010E94950A1816A3
:1009C0001CF485E291E0D4CF2FEF3FEF4FE75FE4D7
:1009D000C701B6010E94ED0B18161CF489E291E0E4
:1009E000C7CF2FEF3FEF4FE75FECC701B6010E9483
:1009F000950A87FDF3CF20E030E0A901C701B601D9
:100A00000E94950A10E000E087FF0CC041E06DE213
:100A100089EB92E00E948B03F7FAF094F7F8F094D8
:100A200001E010E0C0E060E070E080E09FE37C1651
:100A300041F020E030E040E251E40E949A0ACF5FAA
:100A4000F6CFA70196010E94290A4B015C010E9482
:100A50000C0B2B013C014AE00E94F402080F191F05
:100A6000CC23C9F1C301B2010E943B0B9B01AC0135
:100A7000C501B4010E94280A4B015C0141E06EE20D
:100A800089EB92E00E948B030F5F1F4FC15018F15A
:100A900020E030E040E251E4C501B4010E94F20BD5
:100AA0002B013C010E940C0B4B01B12CA12C4AE004
:100AB000C501B4010E94F402080F191FC501B40159
:100AC0000E943B0B9B01AC01C301B2010E94280AAA
:100AD0004B015C01DBCFC801CF911F910F91FF90BB
:100AE000EF90DF90CF90BF90AF909F908F907F90CE
:100AF0006F905F904F9008951F920F920FB60F92D4
:100B000011242F933F938F939F93AF93BF93809123
:100B1000EC019091ED01A091EE01B091EF013091C7
:100B2000EB0123E0230F2D3758F50196A11DB11DD0
:100B30002093EB018093EC019093ED01A093EE01E3
:100B4000B093EF018091F0019091F101A091F20139
:100B5000B091F3010196A11DB11D8093F001909316
:100B6000F101A093F201B093F301BF91AF919F9176
:100B70008F913F912F910F900FBE0F901F9018955E
:100B800026E8230F0296A11DB11DD2CF1F920F920E
:100B90000FB60F9211242F933F934F935F936F9350
:100BA0007F938F939F93AF93BF93EF93FF9384EFC4
:100BB00091E00E945402FF91EF91BF91AF919F91FC
:100BC0008F917F916F915F914F913F912F910F90F6
:100BD0000FBE0F901F9018951F920F920FB60F9295
:100BE00011242F938F939F93EF93FF93E09104022F
:100BF000F09105028081E0910A02F0910B0282FDE2
:100C00001BC0908180910D028F5F8F7320910E0227
:100C1000821741F0E0910D02F0E0EC50FE4F958F0D
:100C200080930D02FF91EF919F918F912F910F90E3
:100C30000FBE0F901F9018958081F4CF1F920F92D6
:100C40000FB60F9211242F933F934F935F936F939F
:100C50007F938F939F93AF93BF93CF93DF93EF9344
:100C6000FF938091CC01C091B502D0E087FF24C0F2
:100C700010928500109284008091CC018F5F809348
:100C8000CC018091CC01082E000C990B8C179D078C
:100C900024F48091CC018C30C4F180918400909137
:100CA0008500049680349C4908F47AC080918400C1
:100CB00090918500049676C08091CC01082E000C9E
:100CC000990B8C179D07C4F6E091CC018E2FEE0F87
:100CD000990BFC01EE0FFF1FE80FF91FEF56FD4FB8
:100CE000808186FFC9CFE091CC018E2FEE0F990B4A
:100CF000FC01EE0FFF1FE80FF91FEF56FD4F80813B
:100D000060E08F730E942201B7CF20918400309160
:100D10008500E091CC018E2FEE0F990BFC01EE0FB8
:100D2000FF1FE80FF91FEF56FD4F81819281820F5F
:100D3000931F9093890080938800E091CC018E2FBF
:100D4000EE0F990BFC01EE0FFF1FE80FF91FEF5696
:100D5000FD4F808186FF11C0E091CC018E2FEE0FF8
:100D6000990BFC01EE0FFF1FE80FF91FEF56FD4F27
:100D7000808161E08F730E942201FF91EF91DF91EA
:100D8000CF91BF91AF919F918F917F916F915F9123
:100D90004F913F912F910F900FBE0F901F9018957C
:100DA00080E49CE990938900809388008FEF809382
:100DB000CC01E3CFCF931092F7011092F60188EEA9
:100DC00093E0A0E0B0E08093F8019093F901A09344
:100DD000FA01B093FB0184E091E09093F5018093D8
:100DE000F40185EC90E0909301028093000284EC82
:100DF00090E0909303028093020280EC90E0909345
:100E000005028093040281EC90E0909307028093A6
:100E1000060282EC90E0909309028093080286EC2F
:100E200090E090930B0280930A0210920D021092B0
:100E30000E0210920F02109210021092BC02109239
:100E4000BB0286E191E09093BA028093B9028CE0F4
:100E50008093BD02CFEFC093BE028BE08093BF02B0
:100E600085E08093C00284E08093C10283E0809398
:100E7000C20282E08093C3021092C4021092C502A3
:100E80001092C6021092C7021092C80281E00E941E
:100E9000EC038091B5028C30A0F491E0980F909310
:100EA000B5028093B60290E0FC01EE0FFF1FE80F41
:100EB000F91FEF56FD4F88EB9BE092838183CF9122
:100EC0000895C093B602FBCF789484B5826084BD48
:100ED00084B5816084BD85B5826085BD85B581603E
:100EE00085BD80916E00816080936E0010928100BC
:100EF0008091810082608093810080918100816077
:100F00008093810080918000816080938000809137
:100F1000B10084608093B1008091B00081608093C3
:100F2000B00080917A00846080937A0080917A008A
:100F3000826080937A0080917A00816080937A0049
:100F400080917A00806880937A001092C100E091CD
:100F50000402F091050282E08083E0910002F091AA
:100F600001021082E0910202F09103028FEC808373
:100F700010920C02E0910802F091090286E0808351
:100F8000E0910602F0910702808180618083E09108
:100F90000602F0910702808188608083E09106025A
:100FA000F0910702808180688083E0910602F091D1
:100FB000070280818F7D808382E00E94EC03809114
:100FC000B6028C3008F050C089E00E948700809102
:100FD000B602282F30E0F901EE0FFF1FE20FF31FDA
:100FE000EF56FD4F9081907C996090831092B702EC
:100FF0001092B8022CE0622F0E94640C829FB00114
:10100000112430E020E0AB01420F531FFA01EE0F34
:10101000FF1FE40FF51FEF56FD4F908196FD16C0A0
:101020002F5F3F4F2C30310571F781110FC01092A7
:10103000800082E0809381001092850010928400ED
:10104000B19A80916F00826080936F00E091B60248
:101050008E2F90E0FC01EE0FFF1FE80FF91FEF56F7
:10106000FD4F80818064808305EE11E083EE282EA1
:1010700081E0382E91EEE92E91E0F92E20E0C22E8B
:1010800020E0D22E3AE5A32EB12C44EB842E912CF5
:10109000C1EDD1E080E00E946E01899399936AE0EE
:1010A00070E080E090E00E94A4010C171D0791F70A
:1010B000E1EDF1E0DF018081918112962D913C916B
:1010C00013972817390734F43183208313969C93A0
:1010D0008E93129712962A163B0669F7329621E0F4
:1010E000E33EF20739F7E5EDF1E0412C512C3201F6
:1010F00081919191092E000CAA0BBB0B480E591E31
:101100006A1E7B1EEE16FF0699F74092CD015092A3
:10111000CE016092CF017092D0010E94E40360E0A2
:1011200080E00E9489048DE291E00E94380361E032
:1011300085E00E948904C301B2010E943B0B20E0BC
:1011400030E040EA50E40E94F20B20E030E040E85A
:101150005AE30E94F20B20E030E040EC50E40E94A1
:101160009A0A20E030E040E650E40E94F20B42E0B0
:101170000E949E0468EC70E080E090E00E94A40170
:1011800081E00E946E010E94E40360E080E00E9422
:1011900089048AE391E00E94380361E084E00E94C0
:1011A000890489E491E00E94380361E088E00E94AC
:1011B00089048CE491E00E94380368EC70E080E0E0
:1011C00090E00E94A4010E94E40360E080E00E949D
:1011D000890480E591E00E94380361E080E00E948C
:1011E000890482E00E946E01092E000CAA0BBB0B41
:1011F00085369105A105B10508F076C081E691E03C
:101200000E943A0368EC70E080E090E00E94A40144
:1012100083E00E946E01BC01990F880B990B0E941C
:101220003D0B20E030E04AEF53E40E94F20B20E057
:1012300030EC4FE754E40E949A0A6093E501709302
:10124000E6018093E7019093E8010E94E40360E0E7
:1012500080E00E94890483EA91E00E94380361E003
:1012600084E00E9489046091E5017091E60180911B
:10127000E7019091E80142E00E949E0484EB91E036
:101280000E94380368EC70E080E090E00E94A401C6
:101290000E94E40360E084E00E94890487EB91E00F
:1012A0000E94380361E085E00E9489048FEB91E0A1
:1012B0000E943803B092EA01A092E901C091E901CD
:1012C000D091EA01C53BD10564F5CE010E94A6008C
:1012D00061E070E080E090E00E94A4012196D0934C
:1012E000EA01C093E901EACFAC01BD0145565109BD
:1012F000610971094C3251406105710518F480E7AC
:1013000091E07ECF81599140A109B1098E3591407C
:10131000A105B10518F481E891E072CF82E991E06E
:101320006FCF9092EA018092E901C091E901D091DA
:10133000EA01CA35D1057CF0CE010E94A60061E029
:1013400070E080E090E00E94A4012197D093EA0130
:10135000C093E901EACF61E085E00E94890485EC51
:1013600091E00E9438036AE070E080E090E00E9423
:10137000A401C114D10409F48BCE0E944002882339
:1013800009F486CE0E94000083CE052E97FB1EF442
:1013900000940E94DC0957FD07D00E94F70907FC62
:1013A00003D04EF40C94DC0950954095309521956E
:1013B0003F4F4F4F5F4F0895909580957095619581
:1013C0007F4F8F4F9F4F08950E94190AA59F900D40
:1013D000B49F900DA49F800D911D11240895B7FF17
:1013E0000C94E4090E94E409821B930B0895A1E286
:1013F0001A2EAA1BBB1BFD010DC0AA1FBB1FEE1F8F
:10140000FF1FA217B307E407F50720F0A21BB30BD9
:10141000E40BF50B661F771F881F991F1A9469F755
:1014200060957095809590959B01AC01BD01CF01B1
:101430000895A29FB001B39FC001A39F700D811DAD
:101440001124911DB29F700D811D1124911D0895CD
:101450005058BB27AA270E94400A0C94B30B0E9445
:10146000A50B38F00E94AC0B20F039F49F3F19F423
:1014700026F40C94A20B0EF4E095E7FB0C949C0B65
:10148000E92F0E94C40B58F3BA1762077307840749
:10149000950720F079F4A6F50C94E60B0EF4E09590
:1014A0000B2EBA2FA02D0B01B90190010C01CA011E
:1014B000A0011124FF27591B99F0593F50F4503EC9
:1014C00068F11A16F040A22F232F342F4427585FBB
:1014D000F3CF469537952795A795F0405395C9F7D3
:1014E0007EF41F16BA0B620B730B840BBAF091508B
:1014F000A1F0FF0FBB1F661F771F881FC2F70EC02A
:10150000BA0F621F731F841F48F4879577956795FC
:10151000B795F7959E3F08F0B0CF9395880F08F0E8
:101520009927EE0F9795879508950E94780B08F4F8
:1015300081E008950E94AE0A0C94B30B0E94AC0B9C
:1015400058F00E94A50B40F029F45F3F29F00C945D
:101550009C0B51110C94E70B0C94A20B0E94C40B32
:1015600068F39923B1F3552391F3951B550BBB27D2
:10157000AA2762177307840738F09F5F5F4F220F17
:10158000331F441FAA1FA9F335D00E2E3AF0E0E80E
:1015900032D091505040E695001CCAF72BD0FE2F58
:1015A00029D0660F771F881FBB1F261737074807EC
:1015B000AB07B0E809F0BB0B802DBF01FF279358A4
:1015C0005F4F3AF09E3F510578F00C949C0B0C94C1
:1015D000E70B5F3FE4F3983ED4F3869577956795E4
:1015E000B795F7959F5FC9F7880F911D96958795D9
:1015F00097F90895E1E0660F771F881FBB1F6217F8
:1016000073078407BA0720F0621B730B840BBA0BB5
:10161000EE1F88F7E09508950E94CC0B88F09F5745
:1016200098F0B92F9927B751B0F0E1F0660F771F06
:10163000881F991F1AF0BA95C9F714C0B13091F0FC
:101640000E94E60BB1E008950C94E60B672F782F0B
:101650008827B85F39F0B93FCCF3869577956795C1
:10166000B395D9F73EF490958095709561957F4F2D
:101670008F4F9F4F0895E89409C097FB3EF49095D3
:101680008095709561957F4F8F4F9F4F9923A9F05B
:10169000F92F96E9BB279395F695879577956795EA
:1016A000B795F111F8CFFAF4BB0F11F460FF1BC02E
:1016B0006F5F7F4F8F4F9F4F16C0882311F096E9C1
:1016C00011C0772321F09EE8872F762F05C066236F
:1016D00071F096E8862F70E060E02AF09A95660F28
:1016E000771F881FDAF7880F9695879597F90895E1
:1016F000990F0008550FAA0BE0E8FEEF1616170623
:10170000E807F907C0F012161306E407F50798F08A
:10171000621B730B840B950B39F40A2661F0232BA3
:10172000242B252B21F408950A2609F4A140A6951F
:101730008FEF811D811D089597F99F6780E870E004
:1017400060E008959FEF80EC089500240A94161637
:10175000170618060906089500240A94121613069F
:10176000140605060895092E0394000C11F488232D
:1017700052F0BB0F40F4BF2B11F460FF04C06F5F49
:101780007F4F8F4F9F4F089557FD9058440F551F1F
:1017900059F05F3F71F04795880F97FB991F61F0F3
:1017A0009F3F79F087950895121613061406551F6A
:1017B000F2CF4695F1DF08C0161617061806991FD6
:1017C000F1CF86957105610508940895E894BB27CB
:1017D00066277727CB0197F908950E94780B08F4C4
:1017E0008FEF08950E94050C0C94B30B0E94A50B7B
:1017F00038F00E94AC0B20F0952311F00C949C0B58
:101800000C94A20B11240C94E70B0E94C40B70F3F0
:10181000959FC1F3950F50E0551F629FF001729F95
:10182000BB27F00DB11D639FAA27F00DB11DAA1FA4
:10183000649F6627B00DA11D661F829F2227B00DF1
:10184000A11D621F739FB00DA11D621F839FA00D7C
:10185000611D221F749F3327A00D611D231F849FCC
:10186000600D211D822F762F6A2F11249F57504023
:101870009AF0F1F088234AF0EE0FFF1FBB1F661F9E
:10188000771F881F91505040A9F79E3F510580F067
:101890000C949C0B0C94E70B5F3FE4F3983ED4F35D
:1018A000869577956795B795F795E7959F5FC1F70B
:1018B000FE2B880F911D9695879597F908950E94A4
:1018C000780B880B990B0895991B79E004C0991F38
:1018D000961708F0961B881F7A95C9F7809508958A
:1018E000EE0FFF1F0590F491E02D0994F894FFCFBF
:1018F000000000007602D6010302C3023402120285
:101900002602000000009804D601E402E3020D0A5A
:10191000006E616E00696E66006F7666002070482A
:101920002056616C7565203A200020205475726243
:101930006964697479203A20003132004E545500B0
:1019400020205761746572204C6576656C203A20C2
:10195000002020202020456D707479202020200058
:10196000202020202020204C6F77202020202020A5
:101970000020202020204D656469756D20202020E6
:101980002000202020202020486967682020202077
:10199000202000202054656D706572617475726539
:1019A000203A200020430046656564696E67005355
:0C19B000746172740046696E697368000F
:00000001FF
